:100000000C9458000C9480000C9480000C94800098
:100010000C9480000C9480000C9480000C94800060
:100020000C9480000C9480000C9480000C94800050
:100030000C9480000C9480000C9480000C94800040
:100040000C94B9030C9480000C9487030C94610306
:100050000C9480000C9480000C9480000C94800020
:100060000C9480000C948000000000002500280003
:100070002B00040404040404040402020202020229
:10008000030303030303010204081020408001025C
:1000900004081020010204081020000000080002DB
:1000A0000100000304070000000000000000F60447
:1000B00011241FBECFEFD8E0DEBFCDBF11E0A0E01E
:1000C000B1E0ECE1FFE002C005900D92A434B1076D
:1000D000D9F721E0A4E4B1E001C01D92AA3EB20725
:1000E000E1F710E0C8E5D0E004C02197FE010E94CE
:1000F0008107C735D107C9F70E9403040C948C0708
:100100000C940000E7EAF0E09491E3E9F0E0249138
:10011000EFE7F0E0E491EE2309F43CC0992339F1D4
:10012000933091F038F49130A9F0923001F594B504
:100130009F7D12C0973091F09830A1F09430B9F4BF
:10014000909180009F7D03C0909180009F77909355
:1001500080000DC094B59F7794BD09C09091B00008
:100160009F7703C09091B0009F7D9093B000F0E026
:10017000EE0FFF1FE859FF4FA591B4919FB7F89478
:10018000811104C08C912095282302C0EC912E2B64
:100190002C939FBF0895CF92DF92EF92FF920F931F
:1001A0001F93CF93DF936C017A018B01C0E0D0E005
:1001B000CE15DF0581F0D8016D918D01D601ED914D
:1001C000FC910190F081E02DC6010995892B11F079
:1001D0002196EECF7E01C701DF91CF911F910F9144
:1001E000FF90EF90DF90CF900895089580E090E029
:1001F0000895FC01538D448D252F30E0842F90E02D
:10020000821B930B541710F0CF9608950197089511
:10021000FC01918D828D981761F0828DDF01A80F0E
:10022000B11D5D968C91928D9F5F9F73928F90E030
:1002300008958FEF9FEF0895FC01918D828D98179F
:1002400031F0828DE80FF11D858D90E008958FEFDC
:100250009FEF0895FC01918D228D892F90E0805CA5
:100260009F4F821B91098F73992708958DE491E028
:100270000E942A0121E0892B09F420E0822F0895B1
:10028000FC01848DDF01A80FB11DA35ABF4F2C9133
:10029000848D90E001968F739927848FA689B78902
:1002A0002C93A089B1898C91837080648C93938DF9
:1002B000848D981306C00288F389E02D80818F7D9C
:1002C00080830895EF92FF920F931F93CF93DF9354
:1002D000EC0181E0888F9B8D8C8D981305C0E88997
:1002E000F989808185FD26C0F62E0B8D10E00F5F09
:1002F0001F4F0F731127E02E8C8DE8120CC00FB624
:1003000007FCFACFE889F989808185FFF5CFCE0116
:100310000E944001F1CF8B8DFE01E80FF11DE35AE1
:10032000FF4FF0829FB7F8940B8FEA89FB89808199
:1003300080620AC09FB7F894EE89FF896083E889DC
:10034000F98980818370806480839FBF81E090E021
:10035000DF91CF911F910F91FF90EF900895CF9370
:10036000DF93EC01888D8823C9F0EA89FB898081BD
:1003700085FD05C0A889B9898C9186FD0FC00FB68F
:1003800007FCF5CF808185FFF2CFA889B9898C91D0
:1003900085FFEDCFCE010E944001E7CFDF91CF91E5
:1003A000089580E090E0892B29F00E9436018111A8
:1003B0000C94000008953FB7F89480914901909102
:1003C0004A01A0914B01B0914C0126B5A89B05C0F4
:1003D0002F3F19F00196A11DB11D3FBFBA2FA92FC4
:1003E000982F8827820F911DA11DB11DBC01CD0141
:1003F00042E0660F771F881F991F4A95D1F708952D
:100400008F929F92AF92BF92CF92DF92EF92FF9224
:100410006B017C010E94DB014B015C01C114D10422
:10042000E104F104F1F00E94DB01DC01CB01881949
:100430009909AA09BB09883E9340A105B10570F34B
:1004400021E0C21AD108E108F10888EE880E83E0A5
:10045000981EA11CB11CC114D104E104F10419F7C8
:10046000DDCFFF90EF90DF90CF90BF90AF909F9047
:100470008F900895009769F0FC0101900020E9F742
:100480003197AF01481B590BBC018DE491E00C94EE
:10049000CB0080E090E008958F929F92AF92BF9240
:1004A0000F931F93CF93DF93CDB7DEB7A1970FB60E
:1004B000F894DEBF0FBECDBF19A2423008F44AE067
:1004C0008E010F5D1F4F842E912CA12CB12CA50104
:1004D00094010E945F07E62FB901CA01015011097A
:1004E000EA3014F4E05D01C0E95CD801EC93232B01
:1004F000242B252B61F7C8010E943A02A1960FB662
:10050000F894DEBF0FBECDBFDF91CF911F910F9149
:10051000BF90AF909F908F9008958F929F92AF92CF
:10052000BF92CF92DF92EF92FF920F931F93CF93E0
:10053000DF936B017C01142F9B01AC010E945A07D1
:10054000882319F082E191E027C046015701E89421
:10055000B7F82FEF3FEF4FE75FE7C501B4010E9407
:100560005A0781110DC02FEF3FEF4FE75FE7C5013D
:10057000B4010E94900518161CF486E191E00CC0AD
:100580002FEF3FEF4FE75FE4C701B6010E94E80697
:10059000181684F48AE191E0DF91CF911F910F91B9
:1005A000FF90EF90DF90CF90BF90AF909F908F9093
:1005B0000C943A022FEF3FEF4FE75FECC701B60113
:1005C0000E94900587FDE6CF20E030E0A901C70139
:1005D000B6010E94900587FF0BC06DE28DE491E0AB
:1005E0000E946201EC01F7FAF094F7F8F09402C06F
:1005F000C0E0D0E000E060E070E080E09FE3101732
:1006000041F020E030E040E251E40E9495050F5FA8
:10061000F6CFA70196010E9424056B017C010E9480
:1006200007064B015C014AE00E944C02C80FD91F2B
:100630001123B9F1C501B4010E9436069B01AC013A
:10064000C701B6010E9423056B017C016EE28DE4B7
:1006500091E00E946201C80FD91F20E030E040E223
:1006600051E4C701B6010E94ED064B015C010E94F6
:1006700007066B01E12CF12C4AE0C701B6010E948C
:100680004C02C80FD91FC701B6010E9436069B0154
:10069000AC01C501B4010E9423056B017C0111501E
:1006A000E1F6CE01DF91CF911F910F91FF90EF9076
:1006B000DF90CF90BF90AF909F908F9008950E9451
:1006C00087071F920F920FB60F9211242F933F931B
:1006D0004F935F936F937F938F939F93AF93BF934A
:1006E000EF93FF938DE491E00E944001FF91EF9121
:1006F000BF91AF919F918F917F916F915F914F913A
:100700003F912F910F900FBE0F901F9018951F9241
:100710000F920FB60F9211242F938F939F93EF9305
:10072000FF93E0915D01F0915E018081E0916301B2
:10073000F091640182FD12C09081809166018F5F0B
:100740008F7320916701821751F0E0916601F0E00C
:10075000E35BFE4F958F8093660101C08081FF911E
:10076000EF919F918F912F910F900FBE0F901F903F
:1007700018951F920F920FB60F9211242F933F934B
:100780008F939F93AF93BF938091450190914601C2
:10079000A0914701B09148013091440123E0230F1B
:1007A0002D3720F40196A11DB11D05C026E8230FA9
:1007B0000296A11DB11D20934401809345019093A1
:1007C0004601A0934701B09348018091490190915F
:1007D0004A01A0914B01B0914C010196A11DB11DA0
:1007E0008093490190934A01A0934B01B0934C012F
:1007F000BF91AF919F918F913F912F910F900FBE1D
:100800000F901F901895789484B5826084BD84B54C
:10081000816084BD85B5826085BD85B5816085BDFB
:1008200080916E00816080936E00109281008091B3
:10083000810082608093810080918100816080933B
:100840008100809180008160809380008091B10060
:1008500084608093B1008091B00081608093B0008B
:1008600080917A00846080937A0080917A0082601F
:1008700080937A0080917A00816080937A008091E1
:100880007A00806880937A001092C100E0915D0147
:10089000F0915E0182E08083E0915901F0915A016C
:1008A0001082E0915B01F0915C0180E18083109205
:1008B0006501E0916101F091620186E08083E09141
:1008C0005F01F0916001808180618083E0915F0130
:1008D000F0916001808188608083E0915F01F091F8
:1008E0006001808180688083E0915F01F091600108
:1008F00080818F7D808310E480E00E94820068EE1A
:1009000073E080E090E00E94000210937C008091F0
:100910007A00806480937A0080917A0086FDFCCF13
:10092000C091780080917900D0E0D82B8EE191E0E1
:100930000E943A026E010D2E000CEE08FF08D7FF50
:1009400010C06DE28DE491E00E9462018827992732
:10095000DC018C199D09AE09BF094AE0BC01CD013B
:1009600003C04AE0C701B6010E944C02C701B601AC
:100970000E94380620E030E040E85AE30E94ED068D
:1009800023E333E343E550E40E94ED066B017C0171
:1009900087E291E00E943A0242E0C701B6010E945C
:1009A0008D0283E391E00E943A0220E030E040E0D3
:1009B0005FE3C701B6010E94230520E030E048EC68
:1009C00052E40E94ED0642E00E948D0280E491E034
:1009D0000E943A0281E00E94820060ED77E080E0B0
:1009E00090E00E9400020E94D10186CFEDE4F1E088
:1009F0001382128288EE93E0A0E0B0E084839583B6
:100A0000A683B78384E091E09183808385EC90E0B6
:100A10009587848784EC90E09787868780EC90E0C8
:100A2000918B808B81EC90E0938B828B82EC90E0B9
:100A3000958B848B86EC90E0978B868B118E128E33
:100A4000138E148E08955058BB27AA270E943B0589
:100A50000C94AE060E94A00638F00E94A70620F073
:100A600039F49F3F19F426F40C949D060EF4E0959A
:100A7000E7FB0C949706E92F0E94BF0658F3BA17BC
:100A8000620773078407950720F079F4A6F50C94A4
:100A9000E1060EF4E0950B2EBA2FA02D0B01B90143
:100AA00090010C01CA01A0011124FF27591B99F0E4
:100AB000593F50F4503E68F11A16F040A22F232FF0
:100AC000342F4427585FF3CF469537952795A79540
:100AD000F0405395C9F77EF41F16BA0B620B730BE7
:100AE000840BBAF09150A1F0FF0FBB1F661F771F58
:100AF000881FC2F70EC0BA0F621F731F841F48F40D
:100B0000879577956795B795F7959E3F08F0B0CF95
:100B10009395880F08F09927EE0F9795879508957C
:100B20000E94730608F481E008950E94A9050C94C0
:100B3000AE060E94A70658F00E94A00640F029F4D5
:100B40005F3F29F00C94970651110C94E2060C9427
:100B50009D060E94BF0668F39923B1F3552391F3D4
:100B6000951B550BBB27AA2762177307840738F01C
:100B70009F5F5F4F220F331F441FAA1FA9F335D079
:100B80000E2E3AF0E0E832D091505040E695001C2D
:100B9000CAF72BD0FE2F29D0660F771F881FBB1FE7
:100BA000261737074807AB07B0E809F0BB0B802DC5
:100BB000BF01FF2793585F4F3AF09E3F510578F0F1
:100BC0000C9497060C94E2065F3FE4F3983ED4F34E
:100BD000869577956795B795F7959F5FC9F7880FC5
:100BE000911D9695879597F90895E1E0660F771F17
:100BF000881FBB1F621773078407BA0720F0621BA8
:100C0000730B840BBA0BEE1F88F7E09508950E94D2
:100C1000C70688F09F5798F0B92F9927B751B0F0C1
:100C2000E1F0660F771F881F991F1AF0BA95C9F770
:100C300014C0B13091F00E94E106B1E008950C9427
:100C4000E106672F782F8827B85F39F0B93FCCF3DA
:100C5000869577956795B395D9F73EF490958095ED
:100C6000709561957F4F8F4F9F4F0895E89409C00D
:100C700097FB3EF490958095709561957F4F8F4FCF
:100C80009F4F9923A9F0F92F96E9BB279395F695E5
:100C9000879577956795B795F111F8CFFAF4BB0F63
:100CA00011F460FF1BC06F5F7F4F8F4F9F4F16C0C7
:100CB000882311F096E911C0772321F09EE8872F51
:100CC000762F05C0662371F096E8862F70E060E00D
:100CD0002AF09A95660F771F881FDAF7880F969586
:100CE000879597F90895990F0008550FAA0BE0E82A
:100CF000FEEF16161706E807F907C0F012161306DE
:100D0000E407F50798F0621B730B840B950B39F41D
:100D10000A2661F0232B242B252B21F408950A2683
:100D200009F4A140A6958FEF811D811D089597F9C3
:100D30009F6780E870E060E008959FEF80EC089581
:100D400000240A94161617061806090608950024AA
:100D50000A9412161306140605060895092E039424
:100D6000000C11F4882352F0BB0F40F4BF2B11F498
:100D700060FF04C06F5F7F4F8F4F9F4F089557FDF7
:100D80009058440F551F59F05F3F71F04795880FF9
:100D900097FB991F61F09F3F79F087950895121690
:100DA00013061406551FF2CF4695F1DF08C016163C
:100DB00017061806991FF1CF8695710561050894ED
:100DC0000895E894BB2766277727CB0197F9089504
:100DD0000E94730608F48FEF08950E9400070C9498
:100DE000AE060E94A00638F00E94A70620F09523C8
:100DF00011F00C9497060C949D0611240C94E206B5
:100E00000E94BF0670F3959FC1F3950F50E0551FE8
:100E1000629FF001729FBB27F00DB11D639FAA274F
:100E2000F00DB11DAA1F649F6627B00DA11D661F9E
:100E3000829F2227B00DA11D621F739FB00DA11DBF
:100E4000621F839FA00D611D221F749F3327A00D79
:100E5000611D231F849F600D211D822F762F6A2F15
:100E600011249F5750409AF0F1F088234AF0EE0F7A
:100E7000FF1FBB1F661F771F881F91505040A9F7A7
:100E80009E3F510580F00C9497060C94E2065F3F5C
:100E9000E4F3983ED4F3869577956795B795F795E3
:100EA000E7959F5FC1F7FE2B880F911D969587955B
:100EB00097F908950E947306880B990B0895A1E293
:100EC0001A2EAA1BBB1BFD010DC0AA1FBB1FEE1FC4
:100ED000FF1FA217B307E407F50720F0A21BB30B0F
:100EE000E40BF50B661F771F881F991F1A9469F78B
:100EF00060957095809590959B01AC01BD01CF01E7
:100F00000895EE0FFF1F0590F491E02D099481E004
:0C0F100090E0F8940C948C07F894FFCF4C
:100F1C00000000006201CB00F900AF012A010801BA
:100F2C001C016E616E00696E66006F76660053651B
:100F3C006E736F723A20002C20566F6C746167656B
:100F4C003A20002C206465677265657320433A0073
:040F5C000D0A00007A
:00000001FF
